{
  "transactions": [
    {
      "hash": "0xb5bf283e89a6e58f107bd31ca920305031650b95129ef1cc73ccc807f1e35908",
      "transactionType": "CREATE",
      "contractName": "PoolSwapTest",
      "contractAddress": "0xd8cdc1aa311650af388111f36d5b85c3ef44789b",
      "function": null,
      "arguments": [
        "0x05E73354cFDd6745C338b50BcFDfA3Aa6fA03408"
      ],
      "transaction": {
        "from": "0x9ac2d5a0a0e88d459ecfb68bcbb94dfd7cdf1f09",
        "gas": "0x16ad97",
        "value": "0x0",
        "input": "0x60a034607a57601f61143e38819003918201601f19168301916001600160401b03831184841017607e57808492602094604052833981010312607a57516001600160a01b0381168103607a576080526040516113ab90816100938239608051818181608d0152818161096e01528181610bb90152610f780152f35b5f80fd5b634e487b7160e01b5f52604160045260245ffdfe60806040526004361015610011575f80fd5b5f3560e01c80632229d0b41461099d578063481c6a7514610959576391dd73461461003a575f80fd5b346108b85760203660031901126108b85760043567ffffffffffffffff81116108b857366023820112156108b857806004013567ffffffffffffffff81116108b85781019060248201913683116108b8577f0000000000000000000000000000000000000000000000000000000000000000926001600160a01b03841692338490036108b8576020818403126108b85760248101359067ffffffffffffffff82116108b8570190610180828403126108b857604051916100f983610d02565b61010560248201610d8c565b83526040601f1982860301126108b8576040519061012282610d4e565b61012e60448201610da0565b825261013c60648201610da0565b60208301526020840191825260a060246083198388030101126108b8576040519461016686610d02565b61017260848301610d8c565b865261018060a48301610d8c565b602087015260c482013562ffffff811681036108b857604087015260e48201358060020b81036108b85760608701526101048201356001600160a01b03811681036108b85760808701526040850195865260609082900360ff1901126108b857604051926101ed84610d32565b6101fa6101248301610da0565b845261014482013560208501526101648201356001600160a01b03811681036108b8576040850152606085019384526101848201359167ffffffffffffffff83116108b85761024c9201602401610dc9565b6080840190815284515184519196916102739130916001600160a01b039081169116610f69565b8751602001518751919350610297925030916001600160a01b039081169116610f69565b92915050610914576108cf576102fc956020916102d55f8851610310885195516040519c8d9788968795633cf3645360e21b87526004870190610e33565b8051151560a4860152602081015160c4860152604001516001600160a01b031660e4850152565b610120610104840152610124830190610e0f565b03925af19485156108c4575f9561088c575b5083515183516103409130916001600160a01b039081169116610f69565b865160200151865191999350610365925030916001600160a01b039081169116610f69565b855180519196935091501561068657505f602082510151125f1461058a575160200151871261050f5761039f878760801d600f0b14610e85565b5f83126104b4576103fa965b5f8112610490575b5f8412610459575b5f811361042d575b505f83136103fe575b8686604051906020820152602081526103e6604082610d6a565b604051918291602083526020830190610e0f565b0390f35b935160200151925190515161042394901515936001600160a01b039283169216611279565b5f808080806103cc565b8551518551845151610453939015159290916001600160a01b0390811691869116611279565b5f6103c3565b855160200151855161048b916001600160a01b03908116911661047b87610f45565b9085602088510151151593611039565b6103bb565b85515185516104af916001600160a01b03908116911661047b84610f45565b6103b3565b60405162461bcd60e51b815260206004820152602d60248201527f64656c7461416674657231206973206e6f742067726561746572207468616e2060448201526c06f7220657175616c20746f203609c1b6064820152608490fd5b60405162461bcd60e51b815260206004820152604760248201527f64656c7461416674657230206973206e6f742067726561746572207468616e2060448201527f6f7220657175616c20746f20646174612e706172616d732e616d6f756e7453706064820152661958da599a595960ca1b608482015260a490fd5b5f881361062b576020906105a28589600f0b14610ee5565b51015183136105b4576103fa966103ab565b60a460405162461bcd60e51b815260206004820152604460248201527f64656c7461416674657231206973206e6f74206c657373207468616e206f722060448201527f657175616c20746f20646174612e706172616d732e616d6f756e745370656369606482015263199a595960e21b6084820152fd5b60405162461bcd60e51b815260206004820152602d60248201527f64656c7461416674657230206973206e6f74206c657373207468616e206f722060448201526c657175616c20746f207a65726f60981b6064820152608490fd5b602001515f13156107905751602001518312610715576106aa8387600f0b14610ee5565b5f87126106ba576103fa966103ab565b60405162461bcd60e51b815260206004820152602d60248201527f64656c7461416674657230206973206e6f742067726561746572207468616e2060448201526c06f7220657175616c20746f203609c1b6064820152608490fd5b60405162461bcd60e51b815260206004820152604760248201527f64656c7461416674657231206973206e6f742067726561746572207468616e2060448201527f6f7220657175616c20746f20646174612e706172616d732e616d6f756e7453706064820152661958da599a595960ca1b608482015260a490fd5b5f8413610834576020906107ab898960801d600f0b14610e85565b51015187136107bd576103fa966103ab565b60a460405162461bcd60e51b815260206004820152604460248201527f64656c7461416674657230206973206e6f74206c657373207468616e206f722060448201527f657175616c20746f20646174612e706172616d732e616d6f756e745370656369606482015263199a595960e21b6084820152fd5b60405162461bcd60e51b815260206004820152602a60248201527f64656c7461416674657231206973206e6f74206c657373207468616e206f72206044820152690657175616c20746f20360b41b6064820152608490fd5b9094506020813d6020116108bc575b816108a860209383610d6a565b810103126108b85751935f610322565b5f80fd5b3d915061089b565b6040513d5f823e3d90fd5b60405162461bcd60e51b815260206004820152601e60248201527f64656c74614265666f726531206973206e6f7420657175616c20746f203000006044820152606490fd5b60405162461bcd60e51b815260206004820152601e60248201527f64656c74614265666f726530206973206e6f7420657175616c20746f203000006044820152606490fd5b346108b8575f3660031901126108b8576040517f00000000000000000000000000000000000000000000000000000000000000006001600160a01b03168152602090f35b366003190161016081126108b85760a0136108b8576040516109be81610d02565b6004356001600160a01b03811681036108b85781526024356001600160a01b03811681036108b857602082015260443562ffffff811681036108b85760408201526064358060020b81036108b85760608201526084356001600160a01b03811681036108b857608082015260603660a31901126108b857604051610a4181610d32565b60a43580151581036108b857815260c435602082015260e4356001600160a01b03811681036108b85760408201526040610103193601126108b857604051610a8881610d4e565b6101043580151581036108b85781526101243580151581036108b8576020820152610144359167ffffffffffffffff83116108b857610bb493610b84610b9292610b6f610ada5f973690600401610dc9565b91610b4460405195610aeb87610d02565b338752602087019889526040870190815260608701928352608087019485526020604051998a9882808b015260018060a01b0390511660408a0152518051151560608a01520151151560808801525160a0870190610e33565b51805115156101408601526020810151610160860152604001516001600160a01b0316610180850152565b516101806101a08401526101c0830190610e0f565b03601f198101835282610d6a565b604051809381926348c8949160e01b8352602060048401526024830190610e0f565b0381837f00000000000000000000000000000000000000000000000000000000000000006001600160a01b03165af19081156108c4575f91610c88575b50602081519181808201938492010103126108b857514780610c19575b602082604051908152f35b5f80808093335af115610c2c5781610c0e565b601f19601f3d0116604051906390bfb86560e01b82523360048301525f6024830152608060448301528060a00160648301523d60848301523d5f60a484013e808201600460a482015260c4633d2cec6f60e21b91015260e40190fd5b90503d805f833e610c998183610d6a565b8101906020818303126108b85780519067ffffffffffffffff82116108b8570181601f820112156108b857805190610cd082610dad565b92610cde6040519485610d6a565b828452602083830101116108b857815f9260208093018386015e8301015281610bf1565b60a0810190811067ffffffffffffffff821117610d1e57604052565b634e487b7160e01b5f52604160045260245ffd5b6060810190811067ffffffffffffffff821117610d1e57604052565b6040810190811067ffffffffffffffff821117610d1e57604052565b90601f8019910116810190811067ffffffffffffffff821117610d1e57604052565b35906001600160a01b03821682036108b857565b359081151582036108b857565b67ffffffffffffffff8111610d1e57601f01601f191660200190565b81601f820112156108b857803590610de082610dad565b92610dee6040519485610d6a565b828452602083830101116108b857815f926020809301838601378301015290565b805180835260209291819084018484015e5f828201840152601f01601f1916010190565b80516001600160a01b03908116835260208083015182169084015260408083015162ffffff169084015260608083015160020b9084015260809182015116910152565b908160209103126108b8575190565b15610e8c57565b60405162461bcd60e51b815260206004820152602b60248201527f64656c74612e616d6f756e74302829206973206e6f7420657175616c20746f2060448201526a064656c74614166746572360ac1b6064820152608490fd5b15610eec57565b60405162461bcd60e51b815260206004820152602b60248201527f64656c74612e616d6f756e74312829206973206e6f7420657175616c20746f2060448201526a64656c746141667465723160a81b6064820152608490fd5b600160ff1b8114610f55575f0390565b634e487b7160e01b5f52601160045260245ffd5b9290610f759084611328565b927f00000000000000000000000000000000000000000000000000000000000000006001600160a01b031690610fab8282611328565b9360018060a01b03165f5260018060a01b0316602052602060405f2060246040518094819363789add5560e11b835260048301525afa9081156108c4575f91610ff2575090565b90506020813d602011611019575b8161100d60209383610d6a565b810103126108b8575190565b3d9150611000565b908160209103126108b8575180151581036108b85790565b9291935f146110a6576001600160a01b0316803b156108b857604051637a94c56560e11b81526001600160a01b03948516600482015293909216602484015260448301525f908290818381606481015b03925af180156108c45761109a5750565b5f6110a491610d6a565b565b90916001600160a01b0316806111135750604051630476982d60e21b81529250602091839160049183916001600160a01b03165af180156108c4576110e85750565b6111099060203d60201161110c575b6111018183610d6a565b810190610e76565b50565b503d6110f7565b6001600160a01b0390911691823b156108b857604051632961046560e21b8152600481018390525f9490858160248183895af180156108c457611264575b506001600160a01b031684308214611209576020929160649160405195869485936323b872dd60e01b8552600485015288602485015260448401525af180156111fe579160209184936111d1575b505b600460405180958193630476982d60e21b83525af19081156111c557506110e85750565b604051903d90823e3d90fd5b6111f090833d85116111f7575b6111e88183610d6a565b810190611021565b505f61119f565b503d6111de565b6040513d85823e3d90fd5b9290506044602092604051948593849263a9059cbb60e01b845288600485015260248401525af180156111fe57916020918493611247575b506111a1565b61125d90833d85116111f7576111e88183610d6a565b505f611241565b6112719195505f90610d6a565b5f935f611151565b9291935f146112cd576001600160a01b0316803b156108b857604051630ab714fb60e11b81526001600160a01b03948516600482015293909216602484015260448301525f90829081838160648101611089565b9092906001600160a01b0316803b156108b857604051630b0d9c0960e01b81526001600160a01b03938416600482015291909216602482015260448101929092525f908290606490829084905af180156108c45761109a5750565b6001600160a01b03168061133b57503190565b6040516370a0823160e01b81526001600160a01b039092166004830152602090829060249082905afa9081156108c4575f91610ff257509056fea2646970667358221220b97bfc484be0a1a0ed4c0bbba91e7a91b370fb131c23d11bdaf30e236a55812064736f6c634300081a003300000000000000000000000005e73354cfdd6745c338b50bcfdfa3aa6fa03408",
        "nonce": "0xc5",
        "chainId": "0x14a34"
      },
      "additionalContracts": [],
      "isFixedGasLimit": false
    },
    {
      "hash": "0x04ce5d057664eddf3b7002fd75bc53c716178f244fb5ea32aa3f8d76e1b6f602",
      "transactionType": "CREATE",
      "contractName": "PoolModifyLiquidityTest",
      "contractAddress": "0x0d51d28db7607949835dcdb6e38d7a1511bf2bb9",
      "function": null,
      "arguments": [
        "0x05E73354cFDd6745C338b50BcFDfA3Aa6fA03408"
      ],
      "transaction": {
        "from": "0x9ac2d5a0a0e88d459ecfb68bcbb94dfd7cdf1f09",
        "gas": "0x148625",
        "value": "0x0",
        "input": "0x60a034607a57601f61124838819003918201601f19168301916001600160401b03831184841017607e57808492602094604052833981010312607a57516001600160a01b0381168103607a576080526040516111b590816100938239608051818181609501528181610713015281816108160152610d0a0152f35b5f80fd5b634e487b7160e01b5f52604160045260245ffdfe60806040526004361015610011575f80fd5b5f3560e01c80630a5b11e414610845578063481c6a75146108015780635a6bcfda146105d8576391dd734614610045575f80fd5b346105c15760203660031901126105c1576004356001600160401b0381116105c157366023820112156105c15780600401356001600160401b0381116105c157810160248101903682116105c1577f0000000000000000000000000000000000000000000000000000000000000000926001600160a01b03841690338290036105c1576020818403126105c1576024810135906001600160401b0382116105c15701906101a0828403126105c157604051916101008361090f565b61010c60248201610995565b835260a0601f1982860301126105c157604051936101298561093e565b61013560448301610995565b855261014360648301610995565b6020860152608482013562ffffff811681036105c157604086015261016a60a483016109a9565b606086015260c48201356001600160a01b03811681036105c15760809160249183880152602086019687528360e31991030101126105c157604051956101af87610959565b6101bb60e483016109a9565b87526101ca61010483016109a9565b602088015261012482013560408801526101448201356060880152604084019687526101648201356001600160401b0381116105c1576102c696602461021292850101610aa7565b9160608501928352604061023d6101a461022f6101848501610aed565b936080890194855201610aed565b9360a0870194855261026a60a08951208b51805160020b6060602083015160020b92015192309089610b8c565b5050956102985f8c6102da8c519151955187519e8f9788968795632d35e7ed60e11b87526004870190610b1e565b8051600290810b60a48701526020820151900b60c4860152604081015160e486015260600151610104850152565b610140610124840152610144830190610afa565b03925af19687156105cd575f97610595575b5061031260a08751208951805160020b6060602083015160020b92015192309087610b8c565b505086515186519192916103349130916001600160a01b039081169116610cfb565b8951602001518951919593506001600160801b0392506103629130916001600160a01b039182169116610cfb565b9891505016600f0b9060408b510151915f8382019384129112908015821691151617610581576001600160801b0316600f0b0361053c576040610423995101515f81125f146104f757505f821380156104ee575b6103bf90610b61565b5f821280156104e5575b6103d39015610b61565b5f82126104b5575b5f8512610480575b505f8113610455575b505f8313610427575b86866040519060208201526020815261040f604082610974565b604051918291602083526020830190610afa565b0390f35b9351602001519251905161044b94901515936001600160a01b03928316921661101a565b5f808080806103f5565b8551518551845161047a939015159290916001600160a01b039081169186911661101a565b5f6103ec565b86516020015186516104af926001600160a01b0392831692909116856104a589610b7c565b9251151593610dda565b5f6103e3565b86515186516104e0916001600160a01b0390811691166104d485610b7c565b90868551151593610dda565b6103db565b505f85126103c9565b505f85136103b6565b5f12156103d3575f82128015610533575b61051190610b61565b5f8213801561052a575b6105259015610b61565b6103d3565b505f851361051b565b505f8512610508565b60405162461bcd60e51b815260206004820152601a60248201527f6c6971756964697479206368616e676520696e636f72726563740000000000006044820152606490fd5b634e487b7160e01b5f52601160045260245ffd5b9096506040813d6040116105c5575b816105b160409383610974565b810103126105c15751955f6102ec565b5f80fd5b3d91506105a4565b6040513d5f823e3d90fd5b6101403660031901126105c1576105ee366109b7565b6105f736610a3e565b61012435916001600160401b0383116105c1576106ec5f9261062061070e953690600401610aa7565b6040519161062d8361090f565b3383526020830194855260408301908152606083019182526106cb60808401928784526106b660a0860193898552610684604051998a986020808b015260018060a01b0390511660408a0152516060890190610b1e565b518051600290810b6101008901526020820151900b610120880152604081015161014088015260600151610160870152565b516101a06101808601526101e0850190610afa565b915115156101a08401525115156101c083015203601f198101835282610974565b604051809381926348c8949160e01b8352602060048401526024830190610afa565b0381837f00000000000000000000000000000000000000000000000000000000000000006001600160a01b03165af19081156105cd575f91610788575b506020818051810103126105c15760200151478061076f575b602082604051908152f35b5f80808093335af1156107825781610764565b336110c9565b90503d805f833e6107998183610974565b8101906020818303126105c1578051906001600160401b0382116105c1570181601f820112156105c1578051906107cf82610a8c565b926107dd6040519485610974565b828452602083830101116105c157815f9260208093018386015e830101528161074b565b346105c1575f3660031901126105c1576040517f00000000000000000000000000000000000000000000000000000000000000006001600160a01b03168152602090f35b6101803660031901126105c15761085b366109b7565b61086436610a3e565b610124356001600160401b0381116105c157610884903690600401610aa7565b9161014435928315158094036105c15761016435928315158094036105c15761070e945f946106cb6106ec946106b6604051956108c08761090f565b3387526020870198895260408701908152606087019283526080870195865260a08701948552610684604051998a986020808b015260018060a01b0390511660408a0152516060890190610b1e565b60c081019081106001600160401b0382111761092a57604052565b634e487b7160e01b5f52604160045260245ffd5b60a081019081106001600160401b0382111761092a57604052565b608081019081106001600160401b0382111761092a57604052565b90601f801991011681019081106001600160401b0382111761092a57604052565b35906001600160a01b03821682036105c157565b35908160020b82036105c157565b60a09060031901126105c157604051906109d08261093e565b816004356001600160a01b03811681036105c15781526024356001600160a01b03811681036105c157602082015260443562ffffff811681036105c15760408201526064358060020b81036105c1576060820152608435906001600160a01b03821682036105c15760800152565b60809060a31901126105c15760405190610a5782610959565b8160a4358060020b81036105c157815260c4358060020b81036105c157602082015260e4356040820152606061010435910152565b6001600160401b03811161092a57601f01601f191660200190565b81601f820112156105c157803590610abe82610a8c565b92610acc6040519485610974565b828452602083830101116105c157815f926020809301838601378301015290565b359081151582036105c157565b805180835260209291819084018484015e5f828201840152601f01601f1916010190565b80516001600160a01b03908116835260208083015182169084015260408083015162ffffff169084015260608083015160020b9084015260809182015116910152565b15610b6857565b634e487b7160e01b5f52600160045260245ffd5b600160ff1b8114610581575f0390565b94939290926040519460268601526006850152600384015282525f603a600c8401209281604082015281602082015252604051602081019182526006604082015260408152610bdc606082610974565b5190209060068201809211610581575f916040519060208201928352604082015260408152610c0c606082610974565b519020604051631afeb18d60e11b815260048101919091526003602482015291829060449082906001600160a01b03165afa9081156105cd575f91610c61575b50602081015160408201516060909201519092565b90503d805f833e610c728183610974565b8101906020818303126105c1578051906001600160401b0382116105c157019080601f830112156105c1578151916001600160401b03831161092a578260051b9060405193610cc46020840186610974565b84526020808501928201019283116105c157602001905b828210610ceb575050505f610c4c565b8151815260209182019101610cdb565b9290610d079084611132565b927f00000000000000000000000000000000000000000000000000000000000000006001600160a01b031690610d3d8282611132565b9360018060a01b03165f5260018060a01b0316602052602060405f2060246040518094819363789add5560e11b835260048301525afa9081156105cd575f91610d84575090565b90506020813d602011610dab575b81610d9f60209383610974565b810103126105c1575190565b3d9150610d92565b908160209103126105c1575180151581036105c15790565b908160209103126105c1575190565b9291935f14610e47576001600160a01b0316803b156105c157604051637a94c56560e11b81526001600160a01b03948516600482015293909216602484015260448301525f908290818381606481015b03925af180156105cd57610e3b5750565b5f610e4591610974565b565b90916001600160a01b031680610eb45750604051630476982d60e21b81529250602091839160049183916001600160a01b03165af180156105cd57610e895750565b610eaa9060203d602011610ead575b610ea28183610974565b810190610dcb565b50565b503d610e98565b6001600160a01b0390911691823b156105c157604051632961046560e21b8152600481018390525f9490858160248183895af180156105cd57611005575b506001600160a01b031684308214610faa576020929160649160405195869485936323b872dd60e01b8552600485015288602485015260448401525af18015610f9f57916020918493610f72575b505b600460405180958193630476982d60e21b83525af1908115610f665750610e895750565b604051903d90823e3d90fd5b610f9190833d8511610f98575b610f898183610974565b810190610db3565b505f610f40565b503d610f7f565b6040513d85823e3d90fd5b9290506044602092604051948593849263a9059cbb60e01b845288600485015260248401525af18015610f9f57916020918493610fe8575b50610f42565b610ffe90833d8511610f9857610f898183610974565b505f610fe2565b6110129195505f90610974565b5f935f610ef2565b9291935f1461106e576001600160a01b0316803b156105c157604051630ab714fb60e11b81526001600160a01b03948516600482015293909216602484015260448301525f90829081838160648101610e2a565b9092906001600160a01b0316803b156105c157604051630b0d9c0960e01b81526001600160a01b03938416600482015291909216602482015260448101929092525f908290606490829084905af180156105cd57610e3b5750565b6040516390bfb86560e01b81526001600160a01b0390911660048201525f602482018190526080604483015260a03d601f01601f191690810160648401523d6084840152903d9060a484013e808201600460a482015260c4633d2cec6f60e21b91015260e40190fd5b6001600160a01b03168061114557503190565b6040516370a0823160e01b81526001600160a01b039092166004830152602090829060249082905afa9081156105cd575f91610d8457509056fea2646970667358221220a44ff385a8522ffa5479daadf2ad5ca30f86911af65eff8947781e735c7547eb64736f6c634300081a003300000000000000000000000005e73354cfdd6745c338b50bcfdfa3aa6fa03408",
        "nonce": "0xc6",
        "chainId": "0x14a34"
      },
      "additionalContracts": [],
      "isFixedGasLimit": false
    },
    {
      "hash": "0xe0110436efb422c359bd072d281f75890064743cca896b5319e57b6b4c990946",
      "transactionType": "CALL",
      "contractName": null,
      "contractAddress": "0x05e73354cfdd6745c338b50bcfdfa3aa6fa03408",
      "function": "initialize((address,address,uint24,int24,address),uint160)",
      "arguments": [
        "(0x036CbD53842c5426634e7929541eC2318f3dCF7e, 0x4200000000000000000000000000000000000006, 3000, 60, 0xc4ABf9A7bf8300086BBad164b4c47B1Afbbf00Cc)",
        "79228162514264337593543950336"
      ],
      "transaction": {
        "from": "0x9ac2d5a0a0e88d459ecfb68bcbb94dfd7cdf1f09",
        "to": "0x05e73354cfdd6745c338b50bcfdfa3aa6fa03408",
        "gas": "0x115d5",
        "value": "0x0",
        "input": "0x6276cbbe000000000000000000000000036cbd53842c5426634e7929541ec2318f3dcf7e00000000000000000000000042000000000000000000000000000000000000060000000000000000000000000000000000000000000000000000000000000bb8000000000000000000000000000000000000000000000000000000000000003c000000000000000000000000c4abf9a7bf8300086bbad164b4c47b1afbbf00cc0000000000000000000000000000000000000001000000000000000000000000",
        "nonce": "0xc7",
        "chainId": "0x14a34"
      },
      "additionalContracts": [],
      "isFixedGasLimit": false
    },
    {
      "hash": "0x3fa7685f1e7e34e04bb7a08abed6da51376b07d2d19f9a21abb7e536ef06e4a3",
      "transactionType": "CALL",
      "contractName": null,
      "contractAddress": "0x4200000000000000000000000000000000000006",
      "function": null,
      "arguments": null,
      "transaction": {
        "from": "0x9ac2d5a0a0e88d459ecfb68bcbb94dfd7cdf1f09",
        "to": "0x4200000000000000000000000000000000000006",
        "gas": "0x9daf",
        "value": "0x38d7ea4c68000",
        "input": "0x",
        "nonce": "0xc8",
        "chainId": "0x14a34"
      },
      "additionalContracts": [],
      "isFixedGasLimit": false
    },
    {
      "hash": "0xaf2b1f2150a1f53b0e4d8edf32f9c4754ad69458e0b5f6ae690c56aea6361b02",
      "transactionType": "CALL",
      "contractName": null,
      "contractAddress": "0x4200000000000000000000000000000000000006",
      "function": "approve(address,uint256)",
      "arguments": [
        "0x0D51d28dB7607949835dCdB6E38D7A1511bf2BB9",
        "115792089237316195423570985008687907853269984665640564039457584007913129639935"
      ],
      "transaction": {
        "from": "0x9ac2d5a0a0e88d459ecfb68bcbb94dfd7cdf1f09",
        "to": "0x4200000000000000000000000000000000000006",
        "gas": "0xfa0a",
        "value": "0x0",
        "input": "0x095ea7b30000000000000000000000000d51d28db7607949835dcdb6e38d7a1511bf2bb9ffffffffffffffffffffffffffffffffffffffffffffffffffffffffffffffff",
        "nonce": "0xc9",
        "chainId": "0x14a34"
      },
      "additionalContracts": [],
      "isFixedGasLimit": false
    },
    {
      "hash": "0x4ff804ddca74585ac23070781023b8775f40332a4602705efc56d6ca0c610e19",
      "transactionType": "CALL",
      "contractName": null,
      "contractAddress": "0x036cbd53842c5426634e7929541ec2318f3dcf7e",
      "function": "approve(address,uint256)",
      "arguments": [
        "0x0D51d28dB7607949835dCdB6E38D7A1511bf2BB9",
        "115792089237316195423570985008687907853269984665640564039457584007913129639935"
      ],
      "transaction": {
        "from": "0x9ac2d5a0a0e88d459ecfb68bcbb94dfd7cdf1f09",
        "to": "0x036cbd53842c5426634e7929541ec2318f3dcf7e",
        "gas": "0x13eb1",
        "value": "0x0",
        "input": "0x095ea7b30000000000000000000000000d51d28db7607949835dcdb6e38d7a1511bf2bb9ffffffffffffffffffffffffffffffffffffffffffffffffffffffffffffffff",
        "nonce": "0xca",
        "chainId": "0x14a34"
      },
      "additionalContracts": [],
      "isFixedGasLimit": false
    },
    {
      "hash": "0xdf0e7d14e7834ce31f35c97450876a8c1ae68439c5f69acdd1d4393a7c26a78a",
      "transactionType": "CALL",
      "contractName": "PoolModifyLiquidityTest",
      "contractAddress": "0x0d51d28db7607949835dcdb6e38d7a1511bf2bb9",
      "function": "modifyLiquidity((address,address,uint24,int24,address),(int24,int24,int256,bytes32),bytes)",
      "arguments": [
        "(0x036CbD53842c5426634e7929541eC2318f3dCF7e, 0x4200000000000000000000000000000000000006, 3000, 60, 0xc4ABf9A7bf8300086BBad164b4c47B1Afbbf00Cc)",
        "(-600, 600, 1000000, 0x0000000000000000000000000000000000000000000000000000000000000000)",
        "0x"
      ],
      "transaction": {
        "from": "0x9ac2d5a0a0e88d459ecfb68bcbb94dfd7cdf1f09",
        "to": "0x0d51d28db7607949835dcdb6e38d7a1511bf2bb9",
        "gas": "0x5e339",
        "value": "0x0",
        "input": "0x5a6bcfda000000000000000000000000036cbd53842c5426634e7929541ec2318f3dcf7e00000000000000000000000042000000000000000000000000000000000000060000000000000000000000000000000000000000000000000000000000000bb8000000000000000000000000000000000000000000000000000000000000003c000000000000000000000000c4abf9a7bf8300086bbad164b4c47b1afbbf00ccfffffffffffffffffffffffffffffffffffffffffffffffffffffffffffffda8000000000000000000000000000000000000000000000000000000000000025800000000000000000000000000000000000000000000000000000000000f4240000000000000000000000000000000000000000000000000000000000000000000000000000000000000000000000000000000000000000000000000000001400000000000000000000000000000000000000000000000000000000000000000",
        "nonce": "0xcb",
        "chainId": "0x14a34"
      },
      "additionalContracts": [],
      "isFixedGasLimit": false
    },
    {
      "hash": "0x83bbf1c1873ce57ac0dee7bc0c634e9a22a6845c0dcf9e75cb39d8385c9c31bf",
      "transactionType": "CALL",
      "contractName": null,
      "contractAddress": "0x036cbd53842c5426634e7929541ec2318f3dcf7e",
      "function": "approve(address,uint256)",
      "arguments": [
        "0xD8cdC1aa311650aF388111F36D5b85c3Ef44789b",
        "115792089237316195423570985008687907853269984665640564039457584007913129639935"
      ],
      "transaction": {
        "from": "0x9ac2d5a0a0e88d459ecfb68bcbb94dfd7cdf1f09",
        "to": "0x036cbd53842c5426634e7929541ec2318f3dcf7e",
        "gas": "0x13eb1",
        "value": "0x0",
        "input": "0x095ea7b3000000000000000000000000d8cdc1aa311650af388111f36d5b85c3ef44789bffffffffffffffffffffffffffffffffffffffffffffffffffffffffffffffff",
        "nonce": "0xcc",
        "chainId": "0x14a34"
      },
      "additionalContracts": [],
      "isFixedGasLimit": false
    },
    {
      "hash": "0x981572dc04222d11074492404ea759313df3bac450abec7b591f43fc4e4b0e01",
      "transactionType": "CALL",
      "contractName": "PoolSwapTest",
      "contractAddress": "0xd8cdc1aa311650af388111f36d5b85c3ef44789b",
      "function": "swap((address,address,uint24,int24,address),(bool,int256,uint160),(bool,bool),bytes)",
      "arguments": [
        "(0x036CbD53842c5426634e7929541eC2318f3dCF7e, 0x4200000000000000000000000000000000000006, 3000, 60, 0xc4ABf9A7bf8300086BBad164b4c47B1Afbbf00Cc)",
        "(true, -10000, 4295128740)",
        "(false, false)",
        "0x"
      ],
      "transaction": {
        "from": "0x9ac2d5a0a0e88d459ecfb68bcbb94dfd7cdf1f09",
        "to": "0xd8cdc1aa311650af388111f36d5b85c3ef44789b",
        "gas": "0x4288a",
        "value": "0x0",
        "input": "0x2229d0b4000000000000000000000000036cbd53842c5426634e7929541ec2318f3dcf7e00000000000000000000000042000000000000000000000000000000000000060000000000000000000000000000000000000000000000000000000000000bb8000000000000000000000000000000000000000000000000000000000000003c000000000000000000000000c4abf9a7bf8300086bbad164b4c47b1afbbf00cc0000000000000000000000000000000000000000000000000000000000000001ffffffffffffffffffffffffffffffffffffffffffffffffffffffffffffd8f000000000000000000000000000000000000000000000000000000001000276a40000000000000000000000000000000000000000000000000000000000000000000000000000000000000000000000000000000000000000000000000000000000000000000000000000000000000000000000000000000000000000000001600000000000000000000000000000000000000000000000000000000000000000",
        "nonce": "0xcd",
        "chainId": "0x14a34"
      },
      "additionalContracts": [],
      "isFixedGasLimit": false
    }
  ],
  "receipts": [
    {
      "status": "0x1",
      "cumulativeGasUsed": "0x1a6d01",
      "logs": [],
      "logsBloom": "0x00000000000000000000000000000000000000000000000000000000000000000000000000000000000000000000000000000000000000000000000000000000000000000000000000000000000000000000000000000000000000000000000000000000000000000000000000000000000000000000000000000000000000000000000000000000000000000000000000000000000000000000000000000000000000000000000000000000000000000000000000000000000000000000000000000000000000000000000000000000000000000000000000000000000000000000000000000000000000000000000000000000000000000000000000000000",
      "type": "0x2",
      "transactionHash": "0xb5bf283e89a6e58f107bd31ca920305031650b95129ef1cc73ccc807f1e35908",
      "transactionIndex": "0xc",
      "blockHash": "0x449ad13566bd59ccb4486076b97cc973ca863f13b8b635dc1f0c5ca94eb29aff",
      "blockNumber": "0x1f4871c",
      "gasUsed": "0x1171d7",
      "effectiveGasPrice": "0xf4278",
      "from": "0x9ac2d5a0a0e88d459ecfb68bcbb94dfd7cdf1f09",
      "to": null,
      "contractAddress": "0xd8cdc1aa311650af388111f36d5b85c3ef44789b",
      "l1BaseFeeScalar": "0x44d",
      "l1BlobBaseFee": "0x1",
      "l1BlobBaseFeeScalar": "0xa118b",
      "l1Fee": "0x8c2",
      "l1GasPrice": "0xa",
      "l1GasUsed": "0xa7ab"
    },
    {
      "status": "0x1",
      "cumulativeGasUsed": "0x107dc3",
      "logs": [],
      "logsBloom": "0x00000000000000000000000000000000000000000000000000000000000000000000000000000000000000000000000000000000000000000000000000000000000000000000000000000000000000000000000000000000000000000000000000000000000000000000000000000000000000000000000000000000000000000000000000000000000000000000000000000000000000000000000000000000000000000000000000000000000000000000000000000000000000000000000000000000000000000000000000000000000000000000000000000000000000000000000000000000000000000000000000000000000000000000000000000000",
      "type": "0x2",
      "transactionHash": "0x04ce5d057664eddf3b7002fd75bc53c716178f244fb5ea32aa3f8d76e1b6f602",
      "transactionIndex": "0x1",
      "blockHash": "0xb3e70b61bd5fca862c48f3c6653ed70ec566af9e97ebd906aa6ea84d91614e2e",
      "blockNumber": "0x1f4871d",
      "gasUsed": "0xfc9a7",
      "effectiveGasPrice": "0xf4278",
      "from": "0x9ac2d5a0a0e88d459ecfb68bcbb94dfd7cdf1f09",
      "to": null,
      "contractAddress": "0x0d51d28db7607949835dcdb6e38d7a1511bf2bb9",
      "l1BaseFeeScalar": "0x44d",
      "l1BlobBaseFee": "0x1",
      "l1BlobBaseFeeScalar": "0xa118b",
      "l1Fee": "0x921",
      "l1GasPrice": "0xa",
      "l1GasUsed": "0xaec7"
    },
    {
      "status": "0x1",
      "cumulativeGasUsed": "0x1146e9",
      "logs": [
        {
          "address": "0x05e73354cfdd6745c338b50bcfdfa3aa6fa03408",
          "topics": [
            "0xdd466e674ea557f56295e2d0218a125ea4b4f0f6f3307b95f85e6110838d6438",
            "0x4ff863ea2ad4b7b332fed8a278caef60185f6bb9ce56cda878c36efb252b1280",
            "0x000000000000000000000000036cbd53842c5426634e7929541ec2318f3dcf7e",
            "0x0000000000000000000000004200000000000000000000000000000000000006"
          ],
          "data": "0x0000000000000000000000000000000000000000000000000000000000000bb8000000000000000000000000000000000000000000000000000000000000003c000000000000000000000000c4abf9a7bf8300086bbad164b4c47b1afbbf00cc00000000000000000000000000000000000000010000000000000000000000000000000000000000000000000000000000000000000000000000000000000000",
          "blockHash": "0xb3e70b61bd5fca862c48f3c6653ed70ec566af9e97ebd906aa6ea84d91614e2e",
          "blockNumber": "0x1f4871d",
          "blockTimestamp": "0x68fc6d1a",
          "transactionHash": "0xe0110436efb422c359bd072d281f75890064743cca896b5319e57b6b4c990946",
          "transactionIndex": "0x2",
          "logIndex": "0x0",
          "removed": false
        }
      ],
      "logsBloom": "0x00000000000000000000000000000000000000000000000000000000000000000000000100000000000000000000000000000000000000000020000000000000000000000000000000000000000000000000000000000000000000000000000000000000000000000000000000000000000010000000000000000000000000000000000044000008002000000000000000000001000000000000000000200000000000040000000000000000000000000000000000000000100000000000000000000000001004000000000000000000000000000000000000000000000000000000000000000000000000020040000000000000000000000000000000000000",
      "type": "0x2",
      "transactionHash": "0xe0110436efb422c359bd072d281f75890064743cca896b5319e57b6b4c990946",
      "transactionIndex": "0x2",
      "blockHash": "0xb3e70b61bd5fca862c48f3c6653ed70ec566af9e97ebd906aa6ea84d91614e2e",
      "blockNumber": "0x1f4871d",
      "gasUsed": "0xc926",
      "effectiveGasPrice": "0xf4278",
      "from": "0x9ac2d5a0a0e88d459ecfb68bcbb94dfd7cdf1f09",
      "to": "0x05e73354cfdd6745c338b50bcfdfa3aa6fa03408",
      "contractAddress": null,
      "l1BaseFeeScalar": "0x44d",
      "l1BlobBaseFee": "0x1",
      "l1BlobBaseFeeScalar": "0xa118b",
      "l1Fee": "0x921",
      "l1GasPrice": "0xa",
      "l1GasUsed": "0x879"
    },
    {
      "status": "0x1",
      "cumulativeGasUsed": "0x11b2bb",
      "logs": [
        {
          "address": "0x4200000000000000000000000000000000000006",
          "topics": [
            "0xe1fffcc4923d04b559f4d29a8bfc6cda04eb5b0d3c460751c2402c5c5cc9109c",
            "0x0000000000000000000000009ac2d5a0a0e88d459ecfb68bcbb94dfd7cdf1f09"
          ],
          "data": "0x00000000000000000000000000000000000000000000000000038d7ea4c68000",
          "blockHash": "0x9fe774b21a8e2f2a074c1227ced90699c45b5dc5bea7b746062039b23173feb2",
          "blockNumber": "0x1f4871d",
          "blockTimestamp": "0x68fc6d1a",
          "transactionHash": "0x3fa7685f1e7e34e04bb7a08abed6da51376b07d2d19f9a21abb7e536ef06e4a3",
          "transactionIndex": "0x3",
          "logIndex": "0x1",
          "removed": false
        }
      ],
      "logsBloom": "0x00000000000000000000000000000000000000000000000000040000000000000000000000000000000000100000000000000000000000000000000000000000000800080000000000000000000000000000000000000000000000008000000000000000010000000000000000000000000000000000000000000000000000000000000000000000000000000000000000000001002000000000000000000000000000000000000000000000000000000000000000000000000000000000000000000000000000000000000000000000000000000000000000000000000000000000000000000000000000000000000000000000000000400000000000000000",
      "type": "0x2",
      "transactionHash": "0x3fa7685f1e7e34e04bb7a08abed6da51376b07d2d19f9a21abb7e536ef06e4a3",
      "transactionIndex": "0x3",
      "blockHash": "0x9fe774b21a8e2f2a074c1227ced90699c45b5dc5bea7b746062039b23173feb2",
      "blockNumber": "0x1f4871d",
      "gasUsed": "0x6bd2",
      "effectiveGasPrice": "0xf4278",
      "from": "0x9ac2d5a0a0e88d459ecfb68bcbb94dfd7cdf1f09",
      "to": "0x4200000000000000000000000000000000000006",
      "contractAddress": null,
      "l1BaseFeeScalar": "0x44d",
      "l1BlobBaseFee": "0x1",
      "l1BlobBaseFeeScalar": "0xa118b",
      "l1Fee": "0x921",
      "l1GasPrice": "0xa",
      "l1GasUsed": "0x640"
    },
    {
      "status": "0x1",
      "cumulativeGasUsed": "0x1267c2",
      "logs": [
        {
          "address": "0x4200000000000000000000000000000000000006",
          "topics": [
            "0x8c5be1e5ebec7d5bd14f71427d1e84f3dd0314c0f7b2291e5b200ac8c7c3b925",
            "0x0000000000000000000000009ac2d5a0a0e88d459ecfb68bcbb94dfd7cdf1f09",
            "0x0000000000000000000000000d51d28db7607949835dcdb6e38d7a1511bf2bb9"
          ],
          "data": "0xffffffffffffffffffffffffffffffffffffffffffffffffffffffffffffffff",
          "blockHash": "0xb3e70b61bd5fca862c48f3c6653ed70ec566af9e97ebd906aa6ea84d91614e2e",
          "blockNumber": "0x1f4871d",
          "blockTimestamp": "0x68fc6d1a",
          "transactionHash": "0xaf2b1f2150a1f53b0e4d8edf32f9c4754ad69458e0b5f6ae690c56aea6361b02",
          "transactionIndex": "0x4",
          "logIndex": "0x2",
          "removed": false
        }
      ],
      "logsBloom": "0x00000000000000000000000000000000000000000000000000040000000000000000000000000000000000100000000000000000000000000000000000200000000800080000000000000000000000000000000000000000000000000000000000000000010004000000000000008000000000000000000000000000000000000000000000000000000000000000000000000000002000000000000000000000020000000000000000000000000000000000000000000000000000000000000000000000000000000000000000000000000000000000000000000000000000000010000000000000000000000000000100000000000000000000000000000000",
      "type": "0x2",
      "transactionHash": "0xaf2b1f2150a1f53b0e4d8edf32f9c4754ad69458e0b5f6ae690c56aea6361b02",
      "transactionIndex": "0x4",
      "blockHash": "0xb3e70b61bd5fca862c48f3c6653ed70ec566af9e97ebd906aa6ea84d91614e2e",
      "blockNumber": "0x1f4871d",
      "gasUsed": "0xb507",
      "effectiveGasPrice": "0xf4278",
      "from": "0x9ac2d5a0a0e88d459ecfb68bcbb94dfd7cdf1f09",
      "to": "0x4200000000000000000000000000000000000006",
      "contractAddress": null,
      "l1BaseFeeScalar": "0x44d",
      "l1BlobBaseFee": "0x1",
      "l1BlobBaseFeeScalar": "0xa118b",
      "l1Fee": "0x921",
      "l1GasPrice": "0xa",
      "l1GasUsed": "0x640"
    },
    {
      "status": "0x1",
      "cumulativeGasUsed": "0x1341ab",
      "logs": [
        {
          "address": "0x036cbd53842c5426634e7929541ec2318f3dcf7e",
          "topics": [
            "0x8c5be1e5ebec7d5bd14f71427d1e84f3dd0314c0f7b2291e5b200ac8c7c3b925",
            "0x0000000000000000000000009ac2d5a0a0e88d459ecfb68bcbb94dfd7cdf1f09",
            "0x0000000000000000000000000d51d28db7607949835dcdb6e38d7a1511bf2bb9"
          ],
          "data": "0xffffffffffffffffffffffffffffffffffffffffffffffffffffffffffffffff",
          "blockHash": "0xb3e70b61bd5fca862c48f3c6653ed70ec566af9e97ebd906aa6ea84d91614e2e",
          "blockNumber": "0x1f4871d",
          "blockTimestamp": "0x68fc6d1a",
          "transactionHash": "0x4ff804ddca74585ac23070781023b8775f40332a4602705efc56d6ca0c610e19",
          "transactionIndex": "0x5",
          "logIndex": "0x3",
          "removed": false
        }
      ],
      "logsBloom": "0x00000000040000000000000000000000000000000000000000000000000000000000000000000000000000000000000000000000000000000000000000200000000800080000000000000000000000000000000000000000000000000000000800000000010004000000000000008000000000000000000000000000000000000000000000000000000000000000000000000000000000000000000000000000020000000000000000000000000000000000000000000000000000000000000000000000000000000000000000000000000000000000000000000000000000000010000000000000000000000020000100000000000000000000000000000000",
      "type": "0x2",
      "transactionHash": "0x4ff804ddca74585ac23070781023b8775f40332a4602705efc56d6ca0c610e19",
      "transactionIndex": "0x5",
      "blockHash": "0xb3e70b61bd5fca862c48f3c6653ed70ec566af9e97ebd906aa6ea84d91614e2e",
      "blockNumber": "0x1f4871d",
      "gasUsed": "0xd9e9",
      "effectiveGasPrice": "0xf4278",
      "from": "0x9ac2d5a0a0e88d459ecfb68bcbb94dfd7cdf1f09",
      "to": "0x036cbd53842c5426634e7929541ec2318f3dcf7e",
      "contractAddress": null,
      "l1BaseFeeScalar": "0x44d",
      "l1BlobBaseFee": "0x1",
      "l1BlobBaseFeeScalar": "0xa118b",
      "l1Fee": "0x921",
      "l1GasPrice": "0xa",
      "l1GasUsed": "0x640"
    },
    {
      "status": "0x1",
      "cumulativeGasUsed": "0x1784df",
      "logs": [
        {
          "address": "0x05e73354cfdd6745c338b50bcfdfa3aa6fa03408",
          "topics": [
            "0xf208f4912782fd25c7f114ca3723a2d5dd6f3bcc3ac8db5af63baa85f711d5ec",
            "0x4ff863ea2ad4b7b332fed8a278caef60185f6bb9ce56cda878c36efb252b1280",
            "0x0000000000000000000000000d51d28db7607949835dcdb6e38d7a1511bf2bb9"
          ],
          "data": "0xfffffffffffffffffffffffffffffffffffffffffffffffffffffffffffffda8000000000000000000000000000000000000000000000000000000000000025800000000000000000000000000000000000000000000000000000000000f42400000000000000000000000000000000000000000000000000000000000000000",
          "blockHash": "0x9fe774b21a8e2f2a074c1227ced90699c45b5dc5bea7b746062039b23173feb2",
          "blockNumber": "0x1f4871d",
          "blockTimestamp": "0x68fc6d1a",
          "transactionHash": "0xdf0e7d14e7834ce31f35c97450876a8c1ae68439c5f69acdd1d4393a7c26a78a",
          "transactionIndex": "0x6",
          "logIndex": "0x4",
          "removed": false
        },
        {
          "address": "0x036cbd53842c5426634e7929541ec2318f3dcf7e",
          "topics": [
            "0xddf252ad1be2c89b69c2b068fc378daa952ba7f163c4a11628f55a4df523b3ef",
            "0x0000000000000000000000009ac2d5a0a0e88d459ecfb68bcbb94dfd7cdf1f09",
            "0x00000000000000000000000005e73354cfdd6745c338b50bcfdfa3aa6fa03408"
          ],
          "data": "0x0000000000000000000000000000000000000000000000000000000000007372",
          "blockHash": "0x9fe774b21a8e2f2a074c1227ced90699c45b5dc5bea7b746062039b23173feb2",
          "blockNumber": "0x1f4871d",
          "blockTimestamp": "0x68fc6d1a",
          "transactionHash": "0xdf0e7d14e7834ce31f35c97450876a8c1ae68439c5f69acdd1d4393a7c26a78a",
          "transactionIndex": "0x6",
          "logIndex": "0x5",
          "removed": false
        },
        {
          "address": "0x4200000000000000000000000000000000000006",
          "topics": [
            "0xddf252ad1be2c89b69c2b068fc378daa952ba7f163c4a11628f55a4df523b3ef",
            "0x0000000000000000000000009ac2d5a0a0e88d459ecfb68bcbb94dfd7cdf1f09",
            "0x00000000000000000000000005e73354cfdd6745c338b50bcfdfa3aa6fa03408"
          ],
          "data": "0x0000000000000000000000000000000000000000000000000000000000007372",
          "blockHash": "0x9fe774b21a8e2f2a074c1227ced90699c45b5dc5bea7b746062039b23173feb2",
          "blockNumber": "0x1f4871d",
          "blockTimestamp": "0x68fc6d1a",
          "transactionHash": "0xdf0e7d14e7834ce31f35c97450876a8c1ae68439c5f69acdd1d4393a7c26a78a",
          "transactionIndex": "0x6",
          "logIndex": "0x6",
          "removed": false
        }
      ],
      "logsBloom": "0x00000000040000000000000000000000000000000000000000040000000000000000000100000000000000100000000000000000000000000000000000000000000800080010000000000008000000000000000000100000000000000000000800000000010004000000000000008000000000000000000000000010000000000000000005000000002000000000000000000000002000000000000000000000000004040000000000000000000000000000000000000000000000000000000000000002001000000000000000000000000000000000000000000000000000000000000000000000000000020820000104000000000000000000000000000000",
      "type": "0x2",
      "transactionHash": "0xdf0e7d14e7834ce31f35c97450876a8c1ae68439c5f69acdd1d4393a7c26a78a",
      "transactionIndex": "0x6",
      "blockHash": "0x9fe774b21a8e2f2a074c1227ced90699c45b5dc5bea7b746062039b23173feb2",
      "blockNumber": "0x1f4871d",
      "gasUsed": "0x44334",
      "effectiveGasPrice": "0xf4278",
      "from": "0x9ac2d5a0a0e88d459ecfb68bcbb94dfd7cdf1f09",
      "to": "0x0d51d28db7607949835dcdb6e38d7a1511bf2bb9",
      "contractAddress": null,
      "l1BaseFeeScalar": "0x44d",
      "l1BlobBaseFee": "0x1",
      "l1BlobBaseFeeScalar": "0xa118b",
      "l1Fee": "0x921",
      "l1GasPrice": "0xa",
      "l1GasUsed": "0x9e2"
    },
    {
      "status": "0x1",
      "cumulativeGasUsed": "0x185ec8",
      "logs": [
        {
          "address": "0x036cbd53842c5426634e7929541ec2318f3dcf7e",
          "topics": [
            "0x8c5be1e5ebec7d5bd14f71427d1e84f3dd0314c0f7b2291e5b200ac8c7c3b925",
            "0x0000000000000000000000009ac2d5a0a0e88d459ecfb68bcbb94dfd7cdf1f09",
            "0x000000000000000000000000d8cdc1aa311650af388111f36d5b85c3ef44789b"
          ],
          "data": "0xffffffffffffffffffffffffffffffffffffffffffffffffffffffffffffffff",
          "blockHash": "0xb3e70b61bd5fca862c48f3c6653ed70ec566af9e97ebd906aa6ea84d91614e2e",
          "blockNumber": "0x1f4871d",
          "blockTimestamp": "0x68fc6d1a",
          "transactionHash": "0x83bbf1c1873ce57ac0dee7bc0c634e9a22a6845c0dcf9e75cb39d8385c9c31bf",
          "transactionIndex": "0x7",
          "logIndex": "0x7",
          "removed": false
        }
      ],
      "logsBloom": "0x00000000040000000000000000000000000000000000000000000000000000000000000000000000000000000000000000000000000000000000000000200000000800080000000000000000000000000000000000000000000000000000000800000000010000000000000000000000000000000000000000000000000000000000000000000000008000000000000000000000000000000000000000000000020200000000000000000000000000000000000000000000000000000000000000000400000000000000000000000000000000000000000000000000000000000010000000000000000000000020000000000000000000000000000000000000",
      "type": "0x2",
      "transactionHash": "0x83bbf1c1873ce57ac0dee7bc0c634e9a22a6845c0dcf9e75cb39d8385c9c31bf",
      "transactionIndex": "0x7",
      "blockHash": "0xb3e70b61bd5fca862c48f3c6653ed70ec566af9e97ebd906aa6ea84d91614e2e",
      "blockNumber": "0x1f4871d",
      "gasUsed": "0xd9e9",
      "effectiveGasPrice": "0xf4278",
      "from": "0x9ac2d5a0a0e88d459ecfb68bcbb94dfd7cdf1f09",
      "to": "0x036cbd53842c5426634e7929541ec2318f3dcf7e",
      "contractAddress": null,
      "l1BaseFeeScalar": "0x44d",
      "l1BlobBaseFee": "0x1",
      "l1BlobBaseFeeScalar": "0xa118b",
      "l1Fee": "0x921",
      "l1GasPrice": "0xa",
      "l1GasUsed": "0x640"
    },
    {
      "status": "0x1",
      "cumulativeGasUsed": "0x1c8a41",
      "logs": [
        {
          "address": "0xc4abf9a7bf8300086bbad164b4c47b1afbbf00cc",
          "topics": [
            "0xf7556256d4883853997d8c20bb48163025b19d32b1d4c0807df4bcc6ff284eee",
            "0x000000000000000000000000d8cdc1aa311650af388111f36d5b85c3ef44789b"
          ],
          "data": "0x0000000000000000000000000000000000000000000000000000000000000000",
          "blockHash": "0x6fe37238e24bf7af38e3e5e98de320714625365d049b97fb1916629af2677f80",
          "blockNumber": "0x1f4871d",
          "blockTimestamp": "0x68fc6d1a",
          "transactionHash": "0x981572dc04222d11074492404ea759313df3bac450abec7b591f43fc4e4b0e01",
          "transactionIndex": "0xa",
          "logIndex": "0x9",
          "removed": false
        },
        {
          "address": "0x05e73354cfdd6745c338b50bcfdfa3aa6fa03408",
          "topics": [
            "0x40e9cecb9f5f1f1c5b9c97dec2917b7ee92e57ba5563708daca94dd84ad7112f",
            "0x4ff863ea2ad4b7b332fed8a278caef60185f6bb9ce56cda878c36efb252b1280",
            "0x000000000000000000000000d8cdc1aa311650af388111f36d5b85c3ef44789b"
          ],
          "data": "0xffffffffffffffffffffffffffffffffffffffffffffffffffffffffffffd8f0000000000000000000000000000000000000000000000000000000000000268f0000000000000000000000000000000000000000fd790e5d4347808dc857a93c00000000000000000000000000000000000000000000000000000000000f4240ffffffffffffffffffffffffffffffffffffffffffffffffffffffffffffff390000000000000000000000000000000000000000000000000000000000000bb8",
          "blockHash": "0x6fe37238e24bf7af38e3e5e98de320714625365d049b97fb1916629af2677f80",
          "blockNumber": "0x1f4871d",
          "blockTimestamp": "0x68fc6d1a",
          "transactionHash": "0x981572dc04222d11074492404ea759313df3bac450abec7b591f43fc4e4b0e01",
          "transactionIndex": "0xa",
          "logIndex": "0xa",
          "removed": false
        },
        {
          "address": "0xc4abf9a7bf8300086bbad164b4c47b1afbbf00cc",
          "topics": [
            "0x369bcafe58cbf07056ea72017a3a793d629b73ac3922e4d11a6c2eef5090119e",
            "0x000000000000000000000000d8cdc1aa311650af388111f36d5b85c3ef44789b"
          ],
          "data": "0xffffffffffffffffffffffffffffd8f00000000000000000000000000000268f",
          "blockHash": "0x6fe37238e24bf7af38e3e5e98de320714625365d049b97fb1916629af2677f80",
          "blockNumber": "0x1f4871d",
          "blockTimestamp": "0x68fc6d1a",
          "transactionHash": "0x981572dc04222d11074492404ea759313df3bac450abec7b591f43fc4e4b0e01",
          "transactionIndex": "0xa",
          "logIndex": "0xb",
          "removed": false
        },
        {
          "address": "0x036cbd53842c5426634e7929541ec2318f3dcf7e",
          "topics": [
            "0xddf252ad1be2c89b69c2b068fc378daa952ba7f163c4a11628f55a4df523b3ef",
            "0x0000000000000000000000009ac2d5a0a0e88d459ecfb68bcbb94dfd7cdf1f09",
            "0x00000000000000000000000005e73354cfdd6745c338b50bcfdfa3aa6fa03408"
          ],
          "data": "0x0000000000000000000000000000000000000000000000000000000000002710",
          "blockHash": "0x6fe37238e24bf7af38e3e5e98de320714625365d049b97fb1916629af2677f80",
          "blockNumber": "0x1f4871d",
          "blockTimestamp": "0x68fc6d1a",
          "transactionHash": "0x981572dc04222d11074492404ea759313df3bac450abec7b591f43fc4e4b0e01",
          "transactionIndex": "0xa",
          "logIndex": "0xc",
          "removed": false
        },
        {
          "address": "0x4200000000000000000000000000000000000006",
          "topics": [
            "0xddf252ad1be2c89b69c2b068fc378daa952ba7f163c4a11628f55a4df523b3ef",
            "0x00000000000000000000000005e73354cfdd6745c338b50bcfdfa3aa6fa03408",
            "0x0000000000000000000000009ac2d5a0a0e88d459ecfb68bcbb94dfd7cdf1f09"
          ],
          "data": "0x000000000000000000000000000000000000000000000000000000000000268f",
          "blockHash": "0x6fe37238e24bf7af38e3e5e98de320714625365d049b97fb1916629af2677f80",
          "blockNumber": "0x1f4871d",
          "blockTimestamp": "0x68fc6d1a",
          "transactionHash": "0x981572dc04222d11074492404ea759313df3bac450abec7b591f43fc4e4b0e01",
          "transactionIndex": "0xa",
          "logIndex": "0xd",
          "removed": false
        }
      ],
      "logsBloom": "0x0000000004000000004000000000000000000000000000000004000000000000000000090000000000000010000000000000000004000000000000000002000000080028001000000000000800000000000000000010002000000000000000080000000001000000000000000000000008000000000000000000201000000000000000000400000000a000000000000000000000002000000000000000000000000200040000000000000000000000000000000080000000000000000000000000000402001000000000000000000000000000000000000000000000000000000000000000000000004800020820000000000000000000000000000000000000",
      "type": "0x2",
      "transactionHash": "0x981572dc04222d11074492404ea759313df3bac450abec7b591f43fc4e4b0e01",
      "transactionIndex": "0xa",
      "blockHash": "0x6fe37238e24bf7af38e3e5e98de320714625365d049b97fb1916629af2677f80",
      "blockNumber": "0x1f4871d",
      "gasUsed": "0x302b6",
      "effectiveGasPrice": "0xf4278",
      "from": "0x9ac2d5a0a0e88d459ecfb68bcbb94dfd7cdf1f09",
      "to": "0xd8cdc1aa311650af388111f36d5b85c3ef44789b",
      "contractAddress": null,
      "l1BaseFeeScalar": "0x44d",
      "l1BlobBaseFee": "0x1",
      "l1BlobBaseFeeScalar": "0xa118b",
      "l1Fee": "0x921",
      "l1GasPrice": "0xa",
      "l1GasUsed": "0x9e2"
    }
  ],
  "libraries": [],
  "pending": [],
  "returns": {},
  "timestamp": 1761373464,
  "chain": 84532,
  "commit": "4854fd6"
}